:0C00000010C062C0FDCFFCCFFBCFFACFD8
:10000C00F9CFF8CFF7CFF6CF0000000000000600C4
:10001C00040014000000F894EE27ECBBE5BFF8E1F7
:10002C00A4B7A77FA4BFF1BDE1BD8DE0A2E0ED9325
:10003C008A95E9F780E4A0E6ED938A95E9F7EAE181
:10004C00F0E0C8953196802DC8953196902D00978B
:10005C00B9F0C8953196A02DC8953196B02DC8959C
:10006C003196102CC89531966E2F7F2FF02DE12DE7
:10007C00C89531960D920197D9F7E62FF72FE1CF5E
:10008C00EFE9EDBFC0E751C0E9D0E815F90529F457
:10009C00E5E0F0E04E2E5F2E09C0E0D04E0E5F1E64
:1000AC00E6E0F0E0DED011F44424552488249924B1
:1000BC000895BA93AA934880598035C00A921A922F
:1000CC00FA926A937A938A939A93AA93BA93EA933D
:1000DC00FA93EFB7EA93B5D0A8E5B2E0D7D0B19BCD
:1000EC0002C0D2DF06C0A5E0BFD0E3DFB7D08E2EB2
:1000FC009F2EE991EFBFF991E991B991A99199914D
:10010C00899179916991F990199009901895BA9300
:10011C00AA93C098C298A881B981B8D0C09AC29A43
:10012C00A881B981B3D02296089500E010E0E0E8F0
:10013C00E6BDE0E0E6BDE8BBE5E0E7BBE0E0EFBD37
:10014C00E3BFE2BFE6BFE9BDE0E4EBBFE0E0E5BF43
:10015C00E0E4EABFE0E0E9BFE0E8E8B9E0E0E3B9F9
:10016C00E4BBE6B97894042C052819F4C098C2981D
:10017C00FACF74D076D021F4A8EC76D0C8DFF9CFC2
:10018C00E2E0F0E06ED0C9F471D000E010E007308E
:10019C00E0E01E0734F4A2E367D0B9DF0F5F1F4F16
:1001AC00F6CFE2E0F0E05DD021F4E7E0F0E061D0E2
:1001BC000CF002C061D0F5CFE3CFE3E0F0E051D01A
:1001CC00A1F4C098C298ACE2B1E060D0C09AC29AD7
:1001DC004DD0E3E0F0E045D021F4EBE0F0E049D085
:1001EC000CF002C049D0F5CFE8CF4DD0D9F4C29A6B
:1001FC00C0983CD048D021F4E4E0F0E03AD00CF0C8
:10020C0002C03AD0F7CF3FD069F4C298C09A2ED032
:10021C003AD021F4E4E0F0E02CD00CF002C02CD069
:10022C00F7CFE3CFE5E0F0E01CD029F4C09AC29AF6
:10023C0004D00BD0F7CF97CFFFCFE5B7E062E5BF87
:10024C000895E5B7EF7DE5BF0895E5B7E77EE0617A
:10025C00E5BFEFB778948895EFBF0895E1E0F0E043
:10026C000895E415F5050895B0E008956624772403
:10027C0008956E167F060895A4E6F6DF07D0EEDF2C
:10028C006E0E7F1E0895E4E0F0E0EBCF109639F08F
:10029C0080ED97E00197F1F7A8951197C9F70895AC
:00000001FF
